{
  "contractName": "HealthcareSystem",
  "abi": [
    {
      "inputs": [],
      "stateMutability": "nonpayable",
      "type": "constructor"
    },
    {
      "anonymous": false,
      "inputs": [
        {
          "indexed": true,
          "internalType": "address",
          "name": "doctor",
          "type": "address"
        },
        {
          "indexed": false,
          "internalType": "uint256",
          "name": "slot",
          "type": "uint256"
        },
        {
          "indexed": true,
          "internalType": "address",
          "name": "patient",
          "type": "address"
        }
      ],
      "name": "AppointmentBooked",
      "type": "event"
    },
    {
      "anonymous": false,
      "inputs": [
        {
          "indexed": true,
          "internalType": "uint256",
          "name": "patientId",
          "type": "uint256"
        },
        {
          "indexed": false,
          "internalType": "enum HealthcareSystem.VaccineStatus",
          "name": "vaccineStatus",
          "type": "uint8"
        },
        {
          "indexed": false,
          "internalType": "bool",
          "name": "isDead",
          "type": "bool"
        }
      ],
      "name": "PatientUpdated",
      "type": "event"
    },
    {
      "anonymous": false,
      "inputs": [
        {
          "indexed": true,
          "internalType": "address",
          "name": "user",
          "type": "address"
        },
        {
          "indexed": false,
          "internalType": "string",
          "name": "name",
          "type": "string"
        },
        {
          "indexed": false,
          "internalType": "enum HealthcareSystem.Role",
          "name": "role",
          "type": "uint8"
        }
      ],
      "name": "UserRegistered",
      "type": "event"
    },
    {
      "inputs": [],
      "name": "bookingFee",
      "outputs": [
        {
          "internalType": "uint256",
          "name": "",
          "type": "uint256"
        }
      ],
      "stateMutability": "view",
      "type": "function",
      "constant": true
    },
    {
      "inputs": [
        {
          "internalType": "address",
          "name": "",
          "type": "address"
        },
        {
          "internalType": "uint256",
          "name": "",
          "type": "uint256"
        }
      ],
      "name": "doctorAppointments",
      "outputs": [
        {
          "internalType": "bool",
          "name": "isBooked",
          "type": "bool"
        },
        {
          "internalType": "address",
          "name": "patient",
          "type": "address"
        }
      ],
      "stateMutability": "view",
      "type": "function",
      "constant": true
    },
    {
      "inputs": [
        {
          "internalType": "uint256",
          "name": "",
          "type": "uint256"
        }
      ],
      "name": "doctorsList",
      "outputs": [
        {
          "internalType": "address",
          "name": "",
          "type": "address"
        }
      ],
      "stateMutability": "view",
      "type": "function",
      "constant": true
    },
    {
      "inputs": [],
      "name": "owner",
      "outputs": [
        {
          "internalType": "address",
          "name": "",
          "type": "address"
        }
      ],
      "stateMutability": "view",
      "type": "function",
      "constant": true
    },
    {
      "inputs": [],
      "name": "patientCount",
      "outputs": [
        {
          "internalType": "uint256",
          "name": "",
          "type": "uint256"
        }
      ],
      "stateMutability": "view",
      "type": "function",
      "constant": true
    },
    {
      "inputs": [
        {
          "internalType": "uint256",
          "name": "",
          "type": "uint256"
        }
      ],
      "name": "patients",
      "outputs": [
        {
          "internalType": "uint256",
          "name": "id",
          "type": "uint256"
        },
        {
          "internalType": "uint256",
          "name": "age",
          "type": "uint256"
        },
        {
          "internalType": "string",
          "name": "gender",
          "type": "string"
        },
        {
          "internalType": "enum HealthcareSystem.VaccineStatus",
          "name": "vaccineStatus",
          "type": "uint8"
        },
        {
          "internalType": "string",
          "name": "district",
          "type": "string"
        },
        {
          "internalType": "string",
          "name": "symptomsDetails",
          "type": "string"
        },
        {
          "internalType": "bool",
          "name": "isDead",
          "type": "bool"
        },
        {
          "internalType": "address",
          "name": "addedBy",
          "type": "address"
        }
      ],
      "stateMutability": "view",
      "type": "function",
      "constant": true
    },
    {
      "inputs": [
        {
          "internalType": "uint256",
          "name": "",
          "type": "uint256"
        }
      ],
      "name": "slots",
      "outputs": [
        {
          "internalType": "uint256",
          "name": "",
          "type": "uint256"
        }
      ],
      "stateMutability": "view",
      "type": "function",
      "constant": true
    },
    {
      "inputs": [],
      "name": "userCount",
      "outputs": [
        {
          "internalType": "uint256",
          "name": "",
          "type": "uint256"
        }
      ],
      "stateMutability": "view",
      "type": "function",
      "constant": true
    },
    {
      "inputs": [
        {
          "internalType": "address",
          "name": "",
          "type": "address"
        }
      ],
      "name": "users",
      "outputs": [
        {
          "internalType": "uint256",
          "name": "id",
          "type": "uint256"
        },
        {
          "internalType": "string",
          "name": "name",
          "type": "string"
        },
        {
          "internalType": "enum HealthcareSystem.Role",
          "name": "role",
          "type": "uint8"
        },
        {
          "internalType": "bool",
          "name": "isRegistered",
          "type": "bool"
        }
      ],
      "stateMutability": "view",
      "type": "function",
      "constant": true
    },
    {
      "inputs": [
        {
          "internalType": "string",
          "name": "_name",
          "type": "string"
        },
        {
          "internalType": "enum HealthcareSystem.Role",
          "name": "_role",
          "type": "uint8"
        }
      ],
      "name": "registerUser",
      "outputs": [],
      "stateMutability": "nonpayable",
      "type": "function"
    },
    {
      "inputs": [],
      "name": "getAllDoctors",
      "outputs": [
        {
          "internalType": "address[]",
          "name": "",
          "type": "address[]"
        }
      ],
      "stateMutability": "view",
      "type": "function",
      "constant": true
    },
    {
      "inputs": [
        {
          "internalType": "string",
          "name": "_name",
          "type": "string"
        },
        {
          "internalType": "uint256",
          "name": "_age",
          "type": "uint256"
        },
        {
          "internalType": "string",
          "name": "_gender",
          "type": "string"
        },
        {
          "internalType": "enum HealthcareSystem.VaccineStatus",
          "name": "_vaccineStatus",
          "type": "uint8"
        },
        {
          "internalType": "string",
          "name": "_district",
          "type": "string"
        },
        {
          "internalType": "string",
          "name": "_symptomsDetails",
          "type": "string"
        }
      ],
      "name": "registerPatient",
      "outputs": [],
      "stateMutability": "nonpayable",
      "type": "function"
    },
    {
      "inputs": [
        {
          "internalType": "uint256",
          "name": "_patientId",
          "type": "uint256"
        },
        {
          "internalType": "enum HealthcareSystem.VaccineStatus",
          "name": "_vaccineStatus",
          "type": "uint8"
        },
        {
          "internalType": "bool",
          "name": "_isDead",
          "type": "bool"
        }
      ],
      "name": "updatePatient",
      "outputs": [],
      "stateMutability": "nonpayable",
      "type": "function"
    },
    {
      "inputs": [
        {
          "internalType": "address",
          "name": "_doctor",
          "type": "address"
        },
        {
          "internalType": "uint256",
          "name": "_slot",
          "type": "uint256"
        }
      ],
      "name": "bookAppointment",
      "outputs": [],
      "stateMutability": "payable",
      "type": "function",
      "payable": true
    },
    {
      "inputs": [
        {
          "internalType": "address",
          "name": "_doctor",
          "type": "address"
        }
      ],
      "name": "viewSchedule",
      "outputs": [
        {
          "internalType": "bool[]",
          "name": "",
          "type": "bool[]"
        }
      ],
      "stateMutability": "view",
      "type": "function",
      "constant": true
    },
    {
      "inputs": [
        {
          "internalType": "uint256",
          "name": "_id",
          "type": "uint256"
        }
      ],
      "name": "getPatient",
      "outputs": [
        {
          "components": [
            {
              "internalType": "uint256",
              "name": "id",
              "type": "uint256"
            },
            {
              "internalType": "uint256",
              "name": "age",
              "type": "uint256"
            },
            {
              "internalType": "string",
              "name": "gender",
              "type": "string"
            },
            {
              "internalType": "enum HealthcareSystem.VaccineStatus",
              "name": "vaccineStatus",
              "type": "uint8"
            },
            {
              "internalType": "string",
              "name": "district",
              "type": "string"
            },
            {
              "internalType": "string",
              "name": "symptomsDetails",
              "type": "string"
            },
            {
              "internalType": "bool",
              "name": "isDead",
              "type": "bool"
            },
            {
              "internalType": "address",
              "name": "addedBy",
              "type": "address"
            }
          ],
          "internalType": "struct HealthcareSystem.Patient",
          "name": "",
          "type": "tuple"
        }
      ],
      "stateMutability": "view",
      "type": "function",
      "constant": true
    },
    {
      "inputs": [],
      "name": "getPatientCount",
      "outputs": [
        {
          "internalType": "uint256",
          "name": "",
          "type": "uint256"
        }
      ],
      "stateMutability": "view",
      "type": "function",
      "constant": true
    }
  ],
  "bytecode": "0x60806040526040518060a0016040528061019a61ffff1681526020016101a461ffff1681526020016101ae61ffff1681526020016101b861ffff1681526020016101c261ffff1681525060049060056200005b9291906200024e565b503480156200006957600080fd5b5033600160006101000a81548173ffffffffffffffffffffffffffffffffffffffff021916908373ffffffffffffffffffffffffffffffffffffffff16021790555060006002819055506000600381905550604051806080016040528060026000815480929190620000db9062000396565b9190505581526020016040518060400160405280600581526020017f4f776e65720000000000000000000000000000000000000000000000000000008152508152602001600160038111156200015a577f4e487b7100000000000000000000000000000000000000000000000000000000600052602160045260246000fd5b815260200160011515815250600560003373ffffffffffffffffffffffffffffffffffffffff1673ffffffffffffffffffffffffffffffffffffffff168152602001908152602001600020600082015181600001556020820151816001019080519060200190620001cd929190620002a6565b5060408201518160020160006101000a81548160ff0219169083600381111562000220577f4e487b7100000000000000000000000000000000000000000000000000000000600052602160045260246000fd5b021790555060608201518160020160016101000a81548160ff02191690831515021790555090505062000442565b82805482825590600052602060002090810192821562000293579160200282015b8281111562000292578251829061ffff169055916020019190600101906200026f565b5b509050620002a2919062000337565b5090565b828054620002b49062000360565b90600052602060002090601f016020900481019282620002d8576000855562000324565b82601f10620002f357805160ff191683800117855562000324565b8280016001018555821562000324579182015b828111156200032357825182559160200191906001019062000306565b5b50905062000333919062000337565b5090565b5b808211156200035257600081600090555060010162000338565b5090565b6000819050919050565b600060028204905060018216806200037957607f821691505b6020821081141562000390576200038f62000413565b5b50919050565b6000620003a38262000356565b91507fffffffffffffffffffffffffffffffffffffffffffffffffffffffffffffffff821415620003d957620003d8620003e4565b5b600182019050919050565b7f4e487b7100000000000000000000000000000000000000000000000000000000600052601160045260246000fd5b7f4e487b7100000000000000000000000000000000000000000000000000000000600052602260045260246000fd5b6132c580620004526000396000f3fe6080604052600436106100fe5760003560e01c80637d3a679611610095578063a0303c4111610064578063a0303c4114610375578063a87430ba146103a0578063c190665b146103e0578063eef289961461040b578063f0d9509014610427576100fe565b80637d3a67961461028c578063893f5e26146102c95780638da5cb5b1461030657806393119a8314610331576100fe565b806357cd46f5116100d157806357cd46f5146101bd5780636c788a0d146101fb578063709898c014610226578063754dd07114610263576100fe565b806307973ccf146101035780631a4b85171461012e578063338e12eb14610157578063387dd9e914610180575b600080fd5b34801561010f57600080fd5b50610118610452565b6040516101259190612db8565b60405180910390f35b34801561013a57600080fd5b5061015560048036038101906101509190612313565b610458565b005b34801561016357600080fd5b5061017e600480360381019061017991906122bf565b610878565b005b34801561018c57600080fd5b506101a760048036038101906101a291906123fc565b610c3d565b6040516101b49190612db8565b60405180910390f35b3480156101c957600080fd5b506101e460048036038101906101df9190612283565b610c61565b6040516101f2929190612b74565b60405180910390f35b34801561020757600080fd5b50610210610cbf565b60405161021d9190612db8565b60405180910390f35b34801561023257600080fd5b5061024d600480360381019061024891906123fc565b610ccb565b60405161025a9190612b15565b60405180910390f35b34801561026f57600080fd5b5061028a60048036038101906102859190612425565b610d0a565b005b34801561029857600080fd5b506102b360048036038101906102ae91906123fc565b6110f6565b6040516102c09190612d96565b60405180910390f35b3480156102d557600080fd5b506102f060048036038101906102eb919061225a565b6113e6565b6040516102fd9190612b52565b60405180910390f35b34801561031257600080fd5b5061031b61167e565b6040516103289190612b15565b60405180910390f35b34801561033d57600080fd5b50610358600480360381019061035391906123fc565b6116a4565b60405161036c989796959493929190612e1f565b60405180910390f35b34801561038157600080fd5b5061038a6118be565b6040516103979190612db8565b60405180910390f35b3480156103ac57600080fd5b506103c760048036038101906103c2919061225a565b6118c4565b6040516103d79493929190612dd3565b60405180910390f35b3480156103ec57600080fd5b506103f5611996565b6040516104029190612db8565b60405180910390f35b61042560048036038101906104209190612283565b6119a0565b005b34801561043357600080fd5b5061043c611fc3565b6040516104499190612b30565b60405180910390f35b60025481565b600560003373ffffffffffffffffffffffffffffffffffffffff1673ffffffffffffffffffffffffffffffffffffffff16815260200190815260200160002060020160019054906101000a900460ff16156104e8576040517f08c379a00000000000000000000000000000000000000000000000000000000081526004016104df90612d36565b60405180910390fd5b604051806080016040528060026000815480929190610506906130ec565b9190505581526020018781526020016002600381111561054f577f4e487b7100000000000000000000000000000000000000000000000000000000600052602160045260246000fd5b815260200160011515815250600560003373ffffffffffffffffffffffffffffffffffffffff1673ffffffffffffffffffffffffffffffffffffffff1681526020019081526020016000206000820151816000015560208201518160010190805190602001906105c0929190612051565b5060408201518160020160006101000a81548160ff02191690836003811115610612577f4e487b7100000000000000000000000000000000000000000000000000000000600052602160045260246000fd5b021790555060608201518160020160016101000a81548160ff0219169083151502179055509050506040518061010001604052806003548152602001868152602001858152602001846002811115610693577f4e487b7100000000000000000000000000000000000000000000000000000000600052602160045260246000fd5b81526020018381526020018281526020016000151581526020013373ffffffffffffffffffffffffffffffffffffffff168152506006600060035481526020019081526020016000206000820151816000015560208201518160010155604082015181600201908051906020019061070c929190612051565b5060608201518160030160006101000a81548160ff0219169083600281111561075e577f4e487b7100000000000000000000000000000000000000000000000000000000600052602160045260246000fd5b0217905550608082015181600401908051906020019061077f929190612051565b5060a082015181600501908051906020019061079c929190612051565b5060c08201518160060160006101000a81548160ff02191690831515021790555060e08201518160060160016101000a81548173ffffffffffffffffffffffffffffffffffffffff021916908373ffffffffffffffffffffffffffffffffffffffff1602179055509050503373ffffffffffffffffffffffffffffffffffffffff167fc2e5d5da58bd71d1a2d14cdef02a4256d971b728088f8190d067ccfbae3bd73e876002604051610850929190612bc6565b60405180910390a26003600081548092919061086b906130ec565b9190505550505050505050565b600560003373ffffffffffffffffffffffffffffffffffffffff1673ffffffffffffffffffffffffffffffffffffffff16815260200190815260200160002060020160019054906101000a900460ff1615610908576040517f08c379a00000000000000000000000000000000000000000000000000000000081526004016108ff90612d36565b60405180910390fd5b60006003811115610942577f4e487b7100000000000000000000000000000000000000000000000000000000600052602160045260246000fd5b81600381111561097b577f4e487b7100000000000000000000000000000000000000000000000000000000600052602160045260246000fd5b14156109bc576040517f08c379a00000000000000000000000000000000000000000000000000000000081526004016109b390612c96565b60405180910390fd5b6040518060800160405280600260008154809291906109da906130ec565b919050558152602001838152602001826003811115610a22577f4e487b7100000000000000000000000000000000000000000000000000000000600052602160045260246000fd5b815260200160011515815250600560003373ffffffffffffffffffffffffffffffffffffffff1673ffffffffffffffffffffffffffffffffffffffff168152602001908152602001600020600082015181600001556020820151816001019080519060200190610a93929190612051565b5060408201518160020160006101000a81548160ff02191690836003811115610ae5577f4e487b7100000000000000000000000000000000000000000000000000000000600052602160045260246000fd5b021790555060608201518160020160016101000a81548160ff021916908315150217905550905050600380811115610b46577f4e487b7100000000000000000000000000000000000000000000000000000000600052602160045260246000fd5b816003811115610b7f577f4e487b7100000000000000000000000000000000000000000000000000000000600052602160045260246000fd5b1415610be9576000339080600181540180825580915050600190039060005260206000200160009091909190916101000a81548173ffffffffffffffffffffffffffffffffffffffff021916908373ffffffffffffffffffffffffffffffffffffffff1602179055505b3373ffffffffffffffffffffffffffffffffffffffff167fc2e5d5da58bd71d1a2d14cdef02a4256d971b728088f8190d067ccfbae3bd73e8383604051610c31929190612bc6565b60405180910390a25050565b60048181548110610c4d57600080fd5b906000526020600020016000915090505481565b6007602052816000526040600020602052806000526040600020600091509150508060000160009054906101000a900460ff16908060000160019054906101000a900473ffffffffffffffffffffffffffffffffffffffff16905082565b670de0b6b3a764000081565b60008181548110610cdb57600080fd5b906000526020600020016000915054906101000a900473ffffffffffffffffffffffffffffffffffffffff1681565b60016003811115610d44577f4e487b7100000000000000000000000000000000000000000000000000000000600052602160045260246000fd5b600560003373ffffffffffffffffffffffffffffffffffffffff1673ffffffffffffffffffffffffffffffffffffffff16815260200190815260200160002060020160009054906101000a900460ff166003811115610dcc577f4e487b7100000000000000000000000000000000000000000000000000000000600052602160045260246000fd5b14610e0c576040517f08c379a0000000000000000000000000000000000000000000000000000000008152600401610e0390612c36565b60405180910390fd5b6003548310610e50576040517f08c379a0000000000000000000000000000000000000000000000000000000008152600401610e4790612c16565b60405180910390fd5b600280811115610e89577f4e487b7100000000000000000000000000000000000000000000000000000000600052602160045260246000fd5b826002811115610ec2577f4e487b7100000000000000000000000000000000000000000000000000000000600052602160045260246000fd5b1115610f03576040517f08c379a0000000000000000000000000000000000000000000000000000000008152600401610efa90612d76565b60405180910390fd5b60006006600085815260200190815260200160002090508060060160009054906101000a900460ff1615610f6c576040517f08c379a0000000000000000000000000000000000000000000000000000000008152600401610f6390612d56565b60405180910390fd5b8060030160009054906101000a900460ff166002811115610fb6577f4e487b7100000000000000000000000000000000000000000000000000000000600052602160045260246000fd5b836002811115610fef577f4e487b7100000000000000000000000000000000000000000000000000000000600052602160045260246000fd5b1015611030576040517f08c379a000000000000000000000000000000000000000000000000000000000815260040161102790612cd6565b60405180910390fd5b828160030160006101000a81548160ff0219169083600281111561107d577f4e487b7100000000000000000000000000000000000000000000000000000000600052602160045260246000fd5b021790555081156110a557818160060160006101000a81548160ff0219169083151502179055505b837f05e056d990413a04e561ca6256bfd9f5545dedf7d0129122684e1607a12f8029848360060160009054906101000a900460ff166040516110e8929190612b9d565b60405180910390a250505050565b6110fe6120d7565b60066000838152602001908152602001600020604051806101000160405290816000820154815260200160018201548152602001600282018054611141906130ba565b80601f016020809104026020016040519081016040528092919081815260200182805461116d906130ba565b80156111ba5780601f1061118f576101008083540402835291602001916111ba565b820191906000526020600020905b81548152906001019060200180831161119d57829003601f168201915b505050505081526020016003820160009054906101000a900460ff16600281111561120e577f4e487b7100000000000000000000000000000000000000000000000000000000600052602160045260246000fd5b6002811115611246577f4e487b7100000000000000000000000000000000000000000000000000000000600052602160045260246000fd5b815260200160048201805461125a906130ba565b80601f0160208091040260200160405190810160405280929190818152602001828054611286906130ba565b80156112d35780601f106112a8576101008083540402835291602001916112d3565b820191906000526020600020905b8154815290600101906020018083116112b657829003601f168201915b505050505081526020016005820180546112ec906130ba565b80601f0160208091040260200160405190810160405280929190818152602001828054611318906130ba565b80156113655780601f1061133a57610100808354040283529160200191611365565b820191906000526020600020905b81548152906001019060200180831161134857829003601f168201915b505050505081526020016006820160009054906101000a900460ff161515151581526020016006820160019054906101000a900473ffffffffffffffffffffffffffffffffffffffff1673ffffffffffffffffffffffffffffffffffffffff1673ffffffffffffffffffffffffffffffffffffffff16815250509050919050565b6060600380811115611421577f4e487b7100000000000000000000000000000000000000000000000000000000600052602160045260246000fd5b600560008473ffffffffffffffffffffffffffffffffffffffff1673ffffffffffffffffffffffffffffffffffffffff16815260200190815260200160002060020160009054906101000a900460ff1660038111156114a9577f4e487b7100000000000000000000000000000000000000000000000000000000600052602160045260246000fd5b146114e9576040517f08c379a00000000000000000000000000000000000000000000000000000000081526004016114e090612d16565b60405180910390fd5b600060048054905067ffffffffffffffff811115611530577f4e487b7100000000000000000000000000000000000000000000000000000000600052604160045260246000fd5b60405190808252806020026020018201604052801561155e5781602001602082028036833780820191505090505b50905060005b60048054905081101561167457600760008573ffffffffffffffffffffffffffffffffffffffff1673ffffffffffffffffffffffffffffffffffffffff1681526020019081526020016000206000600483815481106115ec577f4e487b7100000000000000000000000000000000000000000000000000000000600052603260045260246000fd5b9060005260206000200154815260200190815260200160002060000160009054906101000a900460ff1682828151811061164f577f4e487b7100000000000000000000000000000000000000000000000000000000600052603260045260246000fd5b602002602001019015159081151581525050808061166c906130ec565b915050611564565b5080915050919050565b600160009054906101000a900473ffffffffffffffffffffffffffffffffffffffff1681565b60066020528060005260406000206000915090508060000154908060010154908060020180546116d3906130ba565b80601f01602080910402602001604051908101604052809291908181526020018280546116ff906130ba565b801561174c5780601f106117215761010080835404028352916020019161174c565b820191906000526020600020905b81548152906001019060200180831161172f57829003601f168201915b5050505050908060030160009054906101000a900460ff1690806004018054611774906130ba565b80601f01602080910402602001604051908101604052809291908181526020018280546117a0906130ba565b80156117ed5780601f106117c2576101008083540402835291602001916117ed565b820191906000526020600020905b8154815290600101906020018083116117d057829003601f168201915b505050505090806005018054611802906130ba565b80601f016020809104026020016040519081016040528092919081815260200182805461182e906130ba565b801561187b5780601f106118505761010080835404028352916020019161187b565b820191906000526020600020905b81548152906001019060200180831161185e57829003601f168201915b5050505050908060060160009054906101000a900460ff16908060060160019054906101000a900473ffffffffffffffffffffffffffffffffffffffff16905088565b60035481565b60056020528060005260406000206000915090508060000154908060010180546118ed906130ba565b80601f0160208091040260200160405190810160405280929190818152602001828054611919906130ba565b80156119665780601f1061193b57610100808354040283529160200191611966565b820191906000526020600020905b81548152906001019060200180831161194957829003601f168201915b5050505050908060020160009054906101000a900460ff16908060020160019054906101000a900460ff16905084565b6000600354905090565b600260038111156119da577f4e487b7100000000000000000000000000000000000000000000000000000000600052602160045260246000fd5b600560003373ffffffffffffffffffffffffffffffffffffffff1673ffffffffffffffffffffffffffffffffffffffff16815260200190815260200160002060020160009054906101000a900460ff166003811115611a62577f4e487b7100000000000000000000000000000000000000000000000000000000600052602160045260246000fd5b14611aa2576040517f08c379a0000000000000000000000000000000000000000000000000000000008152600401611a9990612c56565b60405180910390fd5b600380811115611adb577f4e487b7100000000000000000000000000000000000000000000000000000000600052602160045260246000fd5b600560008473ffffffffffffffffffffffffffffffffffffffff1673ffffffffffffffffffffffffffffffffffffffff16815260200190815260200160002060020160009054906101000a900460ff166003811115611b63577f4e487b7100000000000000000000000000000000000000000000000000000000600052602160045260246000fd5b14611ba3576040517f08c379a0000000000000000000000000000000000000000000000000000000008152600401611b9a90612bf6565b60405180910390fd5b670de0b6b3a76400003414611bed576040517f08c379a0000000000000000000000000000000000000000000000000000000008152600401611be490612cb6565b60405180910390fd5b6004805490508110611c34576040517f08c379a0000000000000000000000000000000000000000000000000000000008152600401611c2b90612cf6565b60405180910390fd5b600760008373ffffffffffffffffffffffffffffffffffffffff1673ffffffffffffffffffffffffffffffffffffffff168152602001908152602001600020600060048381548110611caf577f4e487b7100000000000000000000000000000000000000000000000000000000600052603260045260246000fd5b9060005260206000200154815260200190815260200160002060000160009054906101000a900460ff1615611d19576040517f08c379a0000000000000000000000000000000000000000000000000000000008152600401611d1090612c76565b60405180910390fd5b60405180604001604052806001151581526020013373ffffffffffffffffffffffffffffffffffffffff16815250600760008473ffffffffffffffffffffffffffffffffffffffff1673ffffffffffffffffffffffffffffffffffffffff168152602001908152602001600020600060048481548110611dc2577f4e487b7100000000000000000000000000000000000000000000000000000000600052603260045260246000fd5b9060005260206000200154815260200190815260200160002060008201518160000160006101000a81548160ff02191690831515021790555060208201518160000160016101000a81548173ffffffffffffffffffffffffffffffffffffffff021916908373ffffffffffffffffffffffffffffffffffffffff1602179055509050506000670de0b6b3a764000080611e5b9190612fb2565b9050600160009054906101000a900473ffffffffffffffffffffffffffffffffffffffff1673ffffffffffffffffffffffffffffffffffffffff166108fc829081150290604051600060405180830381858888f19350505050158015611ec5573d6000803e3d6000fd5b508273ffffffffffffffffffffffffffffffffffffffff166108fc670de0b6b3a76400009081150290604051600060405180830381858888f19350505050158015611f14573d6000803e3d6000fd5b503373ffffffffffffffffffffffffffffffffffffffff168373ffffffffffffffffffffffffffffffffffffffff167f41065d397e54f6a6071715713fa8f8aa14a810479ece0b7e8af9a1a89bf0b60860048581548110611f9e577f4e487b7100000000000000000000000000000000000000000000000000000000600052603260045260246000fd5b9060005260206000200154604051611fb69190612db8565b60405180910390a3505050565b6060600080548060200260200160405190810160405280929190818152602001828054801561204757602002820191906000526020600020905b8160009054906101000a900473ffffffffffffffffffffffffffffffffffffffff1673ffffffffffffffffffffffffffffffffffffffff1681526020019060010190808311611ffd575b5050505050905090565b82805461205d906130ba565b90600052602060002090601f01602090048101928261207f57600085556120c6565b82601f1061209857805160ff19168380011785556120c6565b828001600101855582156120c6579182015b828111156120c55782518255916020019190600101906120aa565b5b5090506120d3919061216c565b5090565b60405180610100016040528060008152602001600081526020016060815260200160006002811115612132577f4e487b7100000000000000000000000000000000000000000000000000000000600052602160045260246000fd5b81526020016060815260200160608152602001600015158152602001600073ffffffffffffffffffffffffffffffffffffffff1681525090565b5b8082111561218557600081600090555060010161216d565b5090565b600061219c61219784612ee3565b612eb2565b9050828152602081018484840111156121b457600080fd5b6121bf848285613078565b509392505050565b6000813590506121d68161322a565b92915050565b6000813590506121eb81613241565b92915050565b60008135905061220081613258565b92915050565b60008135905061221581613268565b92915050565b600082601f83011261222c57600080fd5b813561223c848260208601612189565b91505092915050565b60008135905061225481613278565b92915050565b60006020828403121561226c57600080fd5b600061227a848285016121c7565b91505092915050565b6000806040838503121561229657600080fd5b60006122a4858286016121c7565b92505060206122b585828601612245565b9150509250929050565b600080604083850312156122d257600080fd5b600083013567ffffffffffffffff8111156122ec57600080fd5b6122f88582860161221b565b9250506020612309858286016121f1565b9150509250929050565b60008060008060008060c0878903121561232c57600080fd5b600087013567ffffffffffffffff81111561234657600080fd5b61235289828a0161221b565b965050602061236389828a01612245565b955050604087013567ffffffffffffffff81111561238057600080fd5b61238c89828a0161221b565b945050606061239d89828a01612206565b935050608087013567ffffffffffffffff8111156123ba57600080fd5b6123c689828a0161221b565b92505060a087013567ffffffffffffffff8111156123e357600080fd5b6123ef89828a0161221b565b9150509295509295509295565b60006020828403121561240e57600080fd5b600061241c84828501612245565b91505092915050565b60008060006060848603121561243a57600080fd5b600061244886828701612245565b935050602061245986828701612206565b925050604061246a868287016121dc565b9150509250925092565b600061248083836124a4565b60208301905092915050565b6000612498838361257e565b60208301905092915050565b6124ad81612fe6565b82525050565b6124bc81612fe6565b82525050565b60006124cd82612f33565b6124d78185612f6e565b93506124e283612f13565b8060005b838110156125135781516124fa8882612474565b975061250583612f54565b9250506001810190506124e6565b5085935050505092915050565b600061252b82612f3e565b6125358185612f7f565b935061254083612f23565b8060005b83811015612571578151612558888261248c565b975061256383612f61565b925050600181019050612544565b5085935050505092915050565b61258781612ff8565b82525050565b61259681612ff8565b82525050565b6125a581613054565b82525050565b6125b481613066565b82525050565b6125c381613066565b82525050565b60006125d482612f49565b6125de8185612f90565b93506125ee818560208601613087565b6125f7816131f1565b840191505092915050565b600061260d82612f49565b6126178185612fa1565b9350612627818560208601613087565b612630816131f1565b840191505092915050565b6000612648602683612fa1565b91507f546865207370656369666965642061646472657373206973206e6f742061206460008301527f6f63746f722e00000000000000000000000000000000000000000000000000006020830152604082019050919050565b60006126ae601783612fa1565b91507f50617469656e7420646f6573206e6f742065786973742e0000000000000000006000830152602082019050919050565b60006126ee602383612fa1565b91507f4f6e6c792061646d696e2063616e20706572666f726d2074686973206163746960008301527f6f6e2e00000000000000000000000000000000000000000000000000000000006020830152604082019050919050565b6000612754602683612fa1565b91507f4f6e6c792070617469656e74732063616e20706572666f726d2074686973206160008301527f6374696f6e2e00000000000000000000000000000000000000000000000000006020830152604082019050919050565b60006127ba601483612fa1565b91507f536c6f7420616c726561647920626f6f6b65642e0000000000000000000000006000830152602082019050919050565b60006127fa600d83612fa1565b91507f496e76616c696420726f6c652e000000000000000000000000000000000000006000830152602082019050919050565b600061283a601683612fa1565b91507f496e636f727265637420626f6f6b696e67206665652e000000000000000000006000830152602082019050919050565b600061287a602d83612fa1565b91507f43616e6e6f74207265766572742076616363696e6553746174757320746f206160008301527f206c6f776572206c6576656c2e000000000000000000000000000000000000006020830152604082019050919050565b60006128e0601383612fa1565b91507f496e76616c696420736c6f7420696e6465782e000000000000000000000000006000830152602082019050919050565b6000612920600c83612fa1565b91507f4e6f74206120646f63746f7200000000000000000000000000000000000000006000830152602082019050919050565b6000612960601b83612fa1565b91507f5573657220697320616c726561647920726567697374657265642e00000000006000830152602082019050919050565b60006129a0603283612fa1565b91507f43616e6e6f742075706461746520612070617469656e742077686f206973206d60008301527f61726b65642061732064656365617365642e00000000000000000000000000006020830152604082019050919050565b6000612a06601683612fa1565b91507f496e76616c69642076616363696e6520737461747573000000000000000000006000830152602082019050919050565b600061010083016000830151612a526000860182612af7565b506020830151612a656020860182612af7565b5060408301518482036040860152612a7d82826125c9565b9150506060830151612a9260608601826125ab565b5060808301518482036080860152612aaa82826125c9565b91505060a083015184820360a0860152612ac482826125c9565b91505060c0830151612ad960c086018261257e565b5060e0830151612aec60e08601826124a4565b508091505092915050565b612b008161304a565b82525050565b612b0f8161304a565b82525050565b6000602082019050612b2a60008301846124b3565b92915050565b60006020820190508181036000830152612b4a81846124c2565b905092915050565b60006020820190508181036000830152612b6c8184612520565b905092915050565b6000604082019050612b89600083018561258d565b612b9660208301846124b3565b9392505050565b6000604082019050612bb260008301856125ba565b612bbf602083018461258d565b9392505050565b60006040820190508181036000830152612be08185612602565b9050612bef602083018461259c565b9392505050565b60006020820190508181036000830152612c0f8161263b565b9050919050565b60006020820190508181036000830152612c2f816126a1565b9050919050565b60006020820190508181036000830152612c4f816126e1565b9050919050565b60006020820190508181036000830152612c6f81612747565b9050919050565b60006020820190508181036000830152612c8f816127ad565b9050919050565b60006020820190508181036000830152612caf816127ed565b9050919050565b60006020820190508181036000830152612ccf8161282d565b9050919050565b60006020820190508181036000830152612cef8161286d565b9050919050565b60006020820190508181036000830152612d0f816128d3565b9050919050565b60006020820190508181036000830152612d2f81612913565b9050919050565b60006020820190508181036000830152612d4f81612953565b9050919050565b60006020820190508181036000830152612d6f81612993565b9050919050565b60006020820190508181036000830152612d8f816129f9565b9050919050565b60006020820190508181036000830152612db08184612a39565b905092915050565b6000602082019050612dcd6000830184612b06565b92915050565b6000608082019050612de86000830187612b06565b8181036020830152612dfa8186612602565b9050612e09604083018561259c565b612e16606083018461258d565b95945050505050565b600061010082019050612e35600083018b612b06565b612e42602083018a612b06565b8181036040830152612e548189612602565b9050612e6360608301886125ba565b8181036080830152612e758187612602565b905081810360a0830152612e898186612602565b9050612e9860c083018561258d565b612ea560e08301846124b3565b9998505050505050505050565b6000604051905081810181811067ffffffffffffffff82111715612ed957612ed86131c2565b5b8060405250919050565b600067ffffffffffffffff821115612efe57612efd6131c2565b5b601f19601f8301169050602081019050919050565b6000819050602082019050919050565b6000819050602082019050919050565b600081519050919050565b600081519050919050565b600081519050919050565b6000602082019050919050565b6000602082019050919050565b600082825260208201905092915050565b600082825260208201905092915050565b600082825260208201905092915050565b600082825260208201905092915050565b6000612fbd8261304a565b9150612fc88361304a565b925082821015612fdb57612fda613135565b5b828203905092915050565b6000612ff18261302a565b9050919050565b60008115159050919050565b600081905061301282613202565b919050565b600081905061302582613216565b919050565b600073ffffffffffffffffffffffffffffffffffffffff82169050919050565b6000819050919050565b600061305f82613004565b9050919050565b600061307182613017565b9050919050565b82818337600083830152505050565b60005b838110156130a557808201518184015260208101905061308a565b838111156130b4576000848401525b50505050565b600060028204905060018216806130d257607f821691505b602082108114156130e6576130e5613193565b5b50919050565b60006130f78261304a565b91507fffffffffffffffffffffffffffffffffffffffffffffffffffffffffffffffff82141561312a57613129613135565b5b600182019050919050565b7f4e487b7100000000000000000000000000000000000000000000000000000000600052601160045260246000fd5b7f4e487b7100000000000000000000000000000000000000000000000000000000600052602160045260246000fd5b7f4e487b7100000000000000000000000000000000000000000000000000000000600052602260045260246000fd5b7f4e487b7100000000000000000000000000000000000000000000000000000000600052604160045260246000fd5b6000601f19601f8301169050919050565b6004811061321357613212613164565b5b50565b6003811061322757613226613164565b5b50565b61323381612fe6565b811461323e57600080fd5b50565b61324a81612ff8565b811461325557600080fd5b50565b6004811061326557600080fd5b50565b6003811061327557600080fd5b50565b6132818161304a565b811461328c57600080fd5b5056fea264697066735822122001e290020bf004a79174867de2bd34a3cbd6bf976c8f46c8d51ea4b9735ee5a664736f6c63430008000033",
  "immutableReferences": {},
  "source": "// SPDX-License-Identifier: MIT\npragma solidity >=0.7.0 <0.9.0;\n\ncontract HealthcareSystem {\n    // User roles\n    enum Role { None, Admin, Patient, Doctor }\n\n    // Vaccine status\n    enum VaccineStatus { NotVaccinated, OneDose, TwoDose }\n\n    // Appointment slots\n    struct AppointmentSlot {\n        bool isBooked;\n        address patient;\n    }\n\n    // User structure\n    struct User {\n        uint id;\n        string name;\n        Role role;\n        bool isRegistered;\n    }\n\n    // Patient structure\n    struct Patient {\n        uint id;\n        uint age;\n        string gender;\n        VaccineStatus vaccineStatus;\n        string district;\n        string symptomsDetails;\n        bool isDead;\n        address addedBy;\n    }\n    address[] public doctorsList;\n\n    address public owner;\n    uint public userCount;\n    uint public patientCount;\n    uint public constant bookingFee = 1 ether;\n    uint[] public slots = [410, 420, 430, 440, 450]; // Slots in HHMM format\n\n    mapping(address => User) public users;\n    mapping(uint => Patient) public patients;\n    mapping(address => mapping(uint => AppointmentSlot)) public doctorAppointments;\n\n    // Events\n    event UserRegistered(address indexed user, string name, Role role);\n    event PatientUpdated(uint indexed patientId, VaccineStatus vaccineStatus, bool isDead);\n    event AppointmentBooked(address indexed doctor, uint slot, address indexed patient);\n\n    // Modifiers\n    modifier onlyOwner() {\n        require(msg.sender == owner, \"Only the contract owner can perform this action.\");\n        _;\n    }\n\n    modifier onlyAdmin() {\n        require(users[msg.sender].role == Role.Admin, \"Only admin can perform this action.\");\n        _;\n    }\n\n    modifier onlyPatient() {\n        require(users[msg.sender].role == Role.Patient, \"Only patients can perform this action.\");\n        _;\n    }\n\n    constructor() {\n        owner = msg.sender;\n        userCount = 0;\n        patientCount = 0;\n        // Register the owner as an Admin\n        users[msg.sender] = User({\n            id: userCount++,\n            name: \"Owner\",\n            role: Role.Admin,\n            isRegistered: true\n        });\n    }\n\n    // Register a user\n    function registerUser(string memory _name, Role _role) public {\n        require(!users[msg.sender].isRegistered, \"User is already registered.\");\n        require(_role != Role.None, \"Invalid role.\");\n\n        users[msg.sender] = User({\n            id: userCount++,\n            name: _name,\n            role: _role,\n            isRegistered: true\n        });\n\n        // Add doctor to list if role is Doctor\n        if (_role == Role.Doctor) {\n            doctorsList.push(msg.sender);\n        }\n\n        emit UserRegistered(msg.sender, _name, _role);\n    }\n    function getAllDoctors() public view returns (address[] memory) {\n        return doctorsList;\n    }\n\n    // Patients can register themselves\n    function registerPatient(\n        string memory _name,\n        uint _age,\n        string memory _gender,\n        VaccineStatus _vaccineStatus,\n        string memory _district,\n        string memory _symptomsDetails\n    ) public {\n        require(!users[msg.sender].isRegistered, \"User is already registered.\");\n\n        // Register as a patient\n        users[msg.sender] = User({\n            id: userCount++,\n            name: _name,\n            role: Role.Patient,\n            isRegistered: true\n        });\n\n        // Add patient details\n        patients[patientCount] = Patient({\n            id: patientCount,\n            age: _age,\n            gender: _gender,\n            vaccineStatus: _vaccineStatus,\n            district: _district,\n            symptomsDetails: _symptomsDetails,\n            isDead: false,\n            addedBy: msg.sender\n        });\n\n        emit UserRegistered(msg.sender, _name, Role.Patient);\n        patientCount++;\n    }\n\n    // Update patient data (only admin)\n    function updatePatient(uint _patientId, VaccineStatus _vaccineStatus, bool _isDead) public onlyAdmin {\n        require(_patientId < patientCount, \"Patient does not exist.\");\n        require(_vaccineStatus <= VaccineStatus.TwoDose, \"Invalid vaccine status\");\n        Patient storage patient = patients[_patientId];\n        \n        require(!patient.isDead, \"Cannot update a patient who is marked as deceased.\");\n\n       \n        require(\n            uint(_vaccineStatus) >= uint(patient.vaccineStatus),\n            \"Cannot revert vaccineStatus to a lower level.\"\n        );\n\n        patient.vaccineStatus = _vaccineStatus;\n\n        if (_isDead) {\n            patient.isDead = _isDead;\n        }\n\n        emit PatientUpdated(_patientId, _vaccineStatus, patient.isDead);\n    }\n\n\n    // Book a doctor's appointment\n    function bookAppointment(address _doctor, uint _slot) public payable onlyPatient {\n        require(users[_doctor].role == Role.Doctor, \"The specified address is not a doctor.\");\n        require(msg.value == bookingFee, \"Incorrect booking fee.\");\n        require(_slot < slots.length, \"Invalid slot index.\");\n        require(!doctorAppointments[_doctor][slots[_slot]].isBooked, \"Slot already booked.\");\n\n    \n        doctorAppointments[_doctor][slots[_slot]] = AppointmentSlot({\n            isBooked: true,\n            patient: msg.sender\n        });\n\n        \n        uint ownerShare = bookingFee - 1 ether;\n        payable(owner).transfer(ownerShare);\n\n        payable(_doctor).transfer(1 ether);\n\n        emit AppointmentBooked(_doctor, slots[_slot], msg.sender);\n    }\n\n\n    function viewSchedule(address _doctor) public view returns (bool[] memory) {\n        require(users[_doctor].role == Role.Doctor, \"Not a doctor\");\n        bool[] memory schedule = new bool[](slots.length);\n        for (uint i = 0; i < slots.length; i++) {\n            schedule[i] = doctorAppointments[_doctor][slots[i]].isBooked;\n        }\n        return schedule;\n    }\n\n    // onvert uint to string\n    function uint2str(uint _i) internal pure returns (string memory) {\n        if (_i == 0) {\n            return \"0\";\n        }\n        uint j = _i;\n        uint len;\n        while (j != 0) {\n            len++;\n            j /= 10;\n        }\n        bytes memory bstr = new bytes(len);\n        uint k = len;\n        while (_i != 0) {\n            k = k - 1;\n            uint8 temp = (48 + uint8(_i - _i / 10 * 10));\n            bytes1 b1 = bytes1(temp);\n            bstr[k] = b1;\n            _i /= 10;\n        }\n        return string(bstr);\n    }\n\n    // convert address to string\n    function toAsciiString(address x) internal pure returns (string memory) {\n        bytes memory s = new bytes(42);\n        s[0] = '0';\n        s[1] = 'x';\n        for (uint i = 0; i < 20; i++) {\n            bytes1 b = bytes1(uint8(uint(uint160(x)) / (2**(8*(19 - i)))));\n            bytes1 hi = bytes1(uint8(b) / 16);\n            bytes1 lo = bytes1(uint8(b) - 16 * uint8(hi));\n            s[2+i*2] = char(hi);\n            s[3+i*2] = char(lo);\n        }\n        return string(s);\n    }\n\n    function char(bytes1 b) internal pure returns (bytes1 c) {\n        if (uint8(b) < 10) return bytes1(uint8(b) + 0x30);\n        else return bytes1(uint8(b) + 0x57);\n    }\n\n    //convert time slot to HH:MM format\n    function timeSlotToString(uint slot) internal pure returns (string memory) {\n        uint hourValue = slot / 100;\n        uint minutesVal = slot % 100;\n        return string(abi.encodePacked(uint2str(hourValue), \":\", minutesVal < 10 ? string(abi.encodePacked(\"0\", uint2str(minutesVal))) : uint2str(minutesVal)));\n    }\n\n    // Get patient data\n    function getPatient(uint _id) public view returns (Patient memory) {\n        return patients[_id];\n    }\n    function getPatientCount() public view returns (uint) {\n    return patientCount;\n}\n}",
  "sourcePath": "/home/s4zz4d/Documents/blockchain/446-project/hospital/hm/contracts/HealthcareSystem.sol",
  "compiler": {
    "name": "solc",
    "version": "0.8.0+commit.c7dfd78e.Emscripten.clang"
  },
  "schemaVersion": "3.4.16",
  "updatedAt": "2024-12-30T18:35:36.384Z",
  "networkType": "ethereum",
  "devdoc": {
    "kind": "dev",
    "methods": {},
    "version": 1
  },
  "userdoc": {
    "kind": "user",
    "methods": {},
    "version": 1
  }
}